:020000040800F2
:10000000280700209D010008332300084D1E00082A
:1000100031230008A90200084D2900080000000053
:10002000000000000000000000000000372300086E
:10003000AB02000800000000352300083923000847
:10004000B7010008B7010008B7010008B7010008B0
:10005000B7010008B7010008B7010008B7010008A0
:10006000B7010008B7010008B7010008B701000890
:10007000B7010008B7010008B7010008B701000880
:10008000B7010008B7010008B7010008B701000870
:10009000B7010008B7010008B7010008B701000860
:1000A000B7010008B7010008B7010008B701000850
:1000B00005240008B7010008B7010008B7010008CF
:1000C000B7010008B7010008B7010008B701000830
:1000D000B7010008B7010008B7010008B701000820
:1000E000B7010008B7010008B7010008B701000810
:1000F000B7010008B7010008B7010008B701000800
:10010000B7010008B7010008B7010008B7010008EF
:10011000B7010008B7010008B7010008B7010008DF
:10012000B7010008B7010008B7010008B7010008CF
:10013000B7010008B7010008B7010008B7010008BF
:10014000B7010008B7010008B7010008B7010008AF
:10015000B7010008B7010008B7010008B70100089F
:10016000B7010008B7010008B7010008B70100088F
:10017000B7010008B7010008B7010008000000003F
:10018000B7010008B7010008DFF80CD000F07AF8DA
:10019000004800473D2A00082807002006488047FD
:1001A00006480047FEE7FEE7FEE7FEE7FEE7FEE75C
:1001B000FEE7FEE7FEE7FEE7F123000889010008FD
:1001C0002DE9F05F0546002092469B46884606468C
:1001D000814640241BE0284641464746224600F01F
:1001E00041F853465A46C01A914110D31146184659
:1001F000224600F028F82D1A67EB01084F462246E8
:100200000120002100F01FF817EB00094E41201ECD
:10021000A4F10104DFDC484631462A464346BDE8E6
:10022000F09FD2B201E000F8012B491EFBD27047CB
:100230000022F6E710B513460A4604461946FFF7B2
:10024000F0FF204610BD202A04DB203A00FA02F11C
:10025000002070479140C2F1200320FA03F31943B4
:1002600090407047202A04DB203A21FA02F0002156
:10027000704721FA02F3D040C2F1200291400843B6
:1002800019467047064C074D06E0E06840F0010350
:1002900094E8070098471034AC42F6D3FFF778FF94
:1002A000DC2A0008FC2A0008FEE7704772B600BF8F
:1002B000FEE770B504460CB9012070BD94F820002B
:1002C00010B9204600F0B0F82068006840F0010046
:1002D0002168086000F000FA05460DE000F0FCF926
:1002E000401B0A2808D9606A40F40030606205208B
:1002F00084F820000120E0E72068406800F0010059
:100300000028EBD02068006820F002002168086017
:1003100000F0E2F905460DE000F0DEF9401B0A2886
:1003200008D9606A40F400306062052084F820003B
:100330000120C2E72068406800F002000028EBD1ED
:10034000207E012806D12068006840F080002168E6
:10035000086005E02068006820F0800021680860DF
:10036000607E012806D12068006840F040002168C6
:10037000086005E02068006820F0400021680860FF
:10038000A07E012806D12068006840F02000216886
:10039000086005E02068006820F0200021680860FF
:1003A000E07E012806D12068006820F01000216856
:1003B000086005E02068006840F0100021680860CF
:1003C000207F012806D12068006840F008002168DD
:1003D000086005E02068006820F0080021680860D7
:1003E000607F012806D12068006840F00400216881
:1003F000086005E02068006820F0040021680860BB
:10040000D4E902010843216908436169084361682E
:10041000491E08432168C86100206062012084F8F9
:100420002000002049E7000010B586B004461421E2
:1004300001A8FFF7FDFE1B492068884230D100BFAC
:10044000002000901848006840F0007016490860CD
:100450000846006800F00070009000BF00BF00BFB9
:100460000020009010481038006840F001000E494C
:10047000103908600846006800F00100009000BFD5
:1004800000BF4FF4C0500190022002900020039062
:10049000032004900920059001A9044800F01CF8ED
:1004A00006B010BD00640040403802400000024029
:1004B00070B5044600F010F906462546681C10B1D8
:1004C00004480078054400BF00F006F9801BA842EC
:1004D000FAD370BD08000020F8B502460B4600258F
:1004E000002400200021D6E0012606FA01F51E684E
:1004F00006EA0504AC4274D11E7906F00306012E0B
:1005000004D01E7906F00306022E13D190684F0026
:100510000326BE40B0434F00DE68BE4030439060CB
:10052000506801268E40B0431E79C6F300168E40F7
:10053000304350601E7906F00306032E09D0D068C0
:100540004F000326BE40B0434F009E68BE4030437C
:10055000D0601E7906F00306022E13D1CF0802F1F7
:10056000200656F827004E07F70E0F26BE40B04370
:100570004F07FF0E1E69BE403043CF0802F1200630
:1005800046F8270010684F000326BE40B0431E798E
:1005900006F003064F00BE40304310605E6806F46C
:1005A0004036002E76D000BF002600963C4E3668BE
:1005B00046F480463A4F3E603E46366806F4804632
:1005C000009600BF00BF374E8F0856F827008E07F1
:1005D000370F0F26BE40B043334EB24202D1002641
:1005E00024E057E0314EB24201D101261EE0304EE8
:1005F000B24201D1022619E02E4EB24201D10326A9
:1006000014E02D4EB24201D104260FE02B4EB2422F
:1006100001D105260AE02A4EB24201D1062605E0A4
:10062000284EB24201D1072600E008268F073F0F6F
:10063000BE4030431B4E8F0846F82700224E3068DC
:10064000A0435E6806F4801606B120431E4E30605B
:10065000361D3068A0435E6806F4001606B12043DC
:10066000194E361D3060184E361F3068A0435E6844
:1006700006F4003606B12043134E361F3060361F95
:100680003068A0435E6806F4803606B120430E4E03
:10069000083E3060491C1029FFF426AFF8BD000069
:1006A0004438024008380140000002400004024083
:1006B00000080240000C02400010024000140240FA
:1006C00000180240001C0240083C01400AB1816150
:1006D00001E00B0483617047014800687047000027
:1006E0000000002070B504460CB9012070BD94F8DC
:1006F0003D0028B9002084F83C00204600F0DAF8DC
:10070000242084F83D002068006820F00100216862
:1007100008602068006840F4004021680860206894
:10072000006820F400402168086000F0A9FA05463E
:100730005C496068884206D85B48854201D2012046
:1007400007E0002005E05948854201D2012000E081
:100750000020012800D1C9E75548B5FBF0F6206814
:10076000406820F03F003043216848604D49606890
:10077000884201D8701C07E04FF4967070434FF424
:100780007A71B0FBF1F0401C2168096A21F03F0149
:1007900008432168086243496068884214D8681E8B
:1007A00061684900B0FBF1F0401CC0F30B00042865
:1007B00001D204203DE0681E61684900B0FBF1F001
:1007C000401CC0F30B0034E0A06838B9681E6168B3
:1007D00001EB4101B0FBF1F0401C0AE0681E6168CA
:1007E00001EBC10202EB0111B0FBF1F0401C40F43F
:1007F0008040C0F30B0008B901201AE0A06848B996
:10080000681E616801EB4101B0FBF1F0401CC0F3D0
:100810000B000CE0681E616801EBC10202EB0111E4
:10082000B0FBF1F0401CC0F30B0040F4804040F4FA
:1008300000402168C9694CF6FF7291430843216862
:10084000C861D4E9070108432168096821F0C001A3
:10085000084321680860D4E90310084321688968C7
:1008600048F2FF329143084321688860D4E90501CA
:1008700008432168C96821F0FF0108432168C86066
:100880002068006840F001002168086000202064B2
:10089000202084F83D000020206384F83E0000BF43
:1008A00024E70000A086010080841E0000093D00AE
:1008B00040420F0010B586B00446142101A8FFF78E
:1008C000B7FC1B492068884230D100BF002000904F
:1008D0001848006840F002001649086008460068A1
:1008E00000F00200009000BF00BF4FF44070019084
:1008F0001220029000200390032004900420059011
:1009000001A90D48FFF7E8FD00BF0020009009484D
:100910001030006840F400100649103108600846A5
:10092000006800F40010009000BF00BF06B010BDCA
:100930000054004030380240000402400348006880
:100940000349097808440149086070470000002005
:100950000800002010B50D48006840F400700B49F5
:1009600008600846006840F4806008600846006837
:1009700040F480700860032000F0A6F80F2000F01B
:1009800007F800F02BF8002010BD0000003C0240EA
:1009900070B504460E4800784FF47A71B1FBF0F060
:1009A0000C490968B1FBF0F5284600F0D7FC08B106
:1009B000012070BD102C07D200222146501E00F0ED
:1009C00045F80548046001E00120F2E70020F0E767
:1009D000080000200C0000200400002008B500BF23
:1009E000002000900E48006840F480400C490860E8
:1009F0000846006800F48040009000BF00BF00BFC0
:100A000000200090081F006840F08050091F086017
:100A10000846006800F08050009000BF00BF08BD8D
:100A2000443802400146084600280DDB00BF00BFE5
:100A300000F01F0301229A4043099B0003F1E023C9
:100A4000C3F8002100BF00BF00BF70472DE9F05F71
:100A500080460D461646002701F07AFF07463946C4
:100A60002A46334601F00700C0F1070ABAF1040F25
:100A700002D94FF0040A01E0C0F1070AD14600F1A3
:100A8000040ABAF1070F02D24FF0000A01E0A0F108
:100A9000030AD4464FF0010A0AFA09FAAAF1010A38
:100AA0000AEA020A0AFA0CFA4FF0010B0BFA0CFBE5
:100AB000ABF1010B0BEA030B4AEA0B04214640465B
:100AC00001F04EFFBDE8F09F00BF00F00702064BAB
:100AD00019684FF6FF031940044B0B4343EA022108
:100AE000014B196000BF70470CED00E00000FA05F3
:100AF00070B504460D460CB9012070BD5848006819
:100B000000F00700A84209D255490D700846006858
:100B100000F00700A84201D00120EEE7207800F0A5
:100B2000020002281DD1207800F00400042805D11D
:100B30004C48006840F4E0504A490860207800F0D2
:100B40000800082805D14748006840F4604045493E
:100B500008604448006820F0F000A168084341495B
:100B60000860207800F00100A8B36068012807D170
:100B70003C4808380068C0F34040B8B90120BCE7E1
:100B80006068022802D06068032807D13548083819
:100B90000068C0F3406048B90120AEE7314808382A
:100BA0000068C0F3400008B90120A6E72D4800689E
:100BB00020F00300616808432A490860FFF78CFDB4
:100BC000064609E0FFF788FD801B41F28831884224
:100BD00002D9032091E707E02248006800F00C00EA
:100BE0006168B0EB810FEDD11D48006800F007008F
:100BF000A84209D91A490D700846006800F007009C
:100C0000A84201D0012078E7207800F004000428F1
:100C100007D11448006820F4E050E1680843114906
:100C20000860207800F00800082808D10D48006806
:100C300020F46040216940EAC1000A49086000F0E0
:100C40003FF808490968C1F30311074A515CC840DD
:100C50000649086006480068FFF79AFE00204CE746
:100C6000003C024008380240C42A00080C00002062
:100C70000400002001480068704700000C000020BC
:100C800000B5FFF7F7FF04490968C1F38221034A61
:100C9000515CC84000BD000008380240D42A00085A
:100CA00000B5FFF7E7FF04490968C1F34231034A81
:100CB000515CC84000BD000008380240D42A00083A
:100CC0002DE9F047002400250026A14625480068AC
:100CD00000F00C0020B1042805D008283AD105E026
:100CE000DFF8849039E0DFF8849036E01D48001F7B
:100CF000006800F03F041B48001F006800F48000FB
:100D000078B11A481749091F0968C1F38811A0FB77
:100D100001700146224600233846FFF751FA054686
:100D20000EE011480F49091F0968C1F38811A0FBA3
:100D300001700146224600233846FFF741FA054676
:100D40000848001F0068C0F30140401C4600B5FB86
:100D5000F6F902E0DFF8109000BF00BF4846BDE89A
:100D6000F0870000083802400024F40000127A00E6
:100D7000F8B504460CB90120F8BD207800F0010058
:100D8000002874D0F948006800F00C0004280DD049
:100D9000F648006800F00C00082813D1F348001F43
:100DA000006800F48000B0F5800F0BD1EF480838E0
:100DB0000068C0F34040002859D06068002856D130
:100DC0000120D9E700BF6068B0F5803F08D1E7484F
:100DD0000838006840F48030E449083908601EE0B3
:100DE0006068B0F5A02F0DD1E0480838006840F4E5
:100DF0008020DE49083908600846006840F48030E9
:100E000008600CE0D9480838006820F48030D749E1
:100E1000083908600846006820F48020086000BF98
:100E2000606890B1FFF758FC054606E0FFF754FCF8
:100E3000401B642801D903209EE7CC48083800688D
:100E4000C0F340400028F1D011E0FFF745FC054613
:100E500006E0FFF741FC401B642801D903208BE723
:100E6000C24808380068C0F340400028F1D120781B
:100E700000F0020002285FD1BC48006800F00C00BE
:100E800058B1BA48006800F00C0008281CD1B748D7
:100E9000001F006800F48000B0B9B448083800684A
:100EA000C0F3400020B1E068012801D0012063E7D1
:100EB000AE480838006820F0F800216940EAC10017
:100EC000AA490839086037E0E06800B30120A84962
:100ED0000860FFF701FC054606E0FFF7FDFB401B3D
:100EE000022801D9032047E7A04808380068C0F36A
:100EF00040000028F1D09D480838006820F0F80034
:100F0000216940EAC10099490839086014E00020CD
:100F100097490860FFF7E0FB054606E0FFF7DCFBBA
:100F2000401B022801D9032026E7904808380068B2
:100F3000C0F340000028F1D1207800F00800082814
:100F40002CD16069A8B101208A490860FFF7C4FB71
:100F5000054606E0FFF7C0FB401B022801D903202D
:100F60000AE782486C300068C0F340000028F1D0E6
:100F700014E000207F490860FFF7AEFB054606E05D
:100F8000FFF7AAFB401B022801D90320F4E67748AB
:100F90006C300068C0F340000028F1D1207800F0E8
:100FA0000400042870D1002770483830006800F031
:100FB000805090B900BF002000906C483830006825
:100FC00040F080506949383108600846006800F0F8
:100FD0008050009000BF00BF01276748006800F400
:100FE0008070B0B96448006840F48070624908605D
:100FF000FFF772FB054606E0FFF76EFB401B022879
:1010000001D90320B8E65C48006800F4807000282D
:10101000F2D000BFA068012808D1544868300068A9
:1010200040F001005149683108601DE0A0680528C2
:101030000DD14E486830006840F004004B496831DB
:1010400008600846006840F0010008600CE047486E
:101050006830006820F001004449683108600846A3
:10106000006820F00400086000BFA068A8B1FFF786
:1010700033FB054609E0FFF72FFB401B41F28831A7
:10108000884202D9032077E626E0384868300068B5
:10109000C0F340000028EED013E0FFF71DFB05462B
:1010A00008E0FFF719FB401B41F28831884201D963
:1010B000032061E62D4868300068C0F34000002836
:1010C000EFD1012F07D129483830006820F0805037
:1010D00026493831086000BFA069002845D0234860
:1010E000006800F00C0008285DD0A069022845D1F6
:1010F00000201F490866FFF7EFFA054606E0FFF7F4
:10110000EBFA401B022801D9032035E617480838BE
:101110000068C0F340600028F1D1D4E9070108431A
:10112000616A40EA81110122A06AC2EB500041EAE3
:1011300000412C20005D41EA00600C49091F086055
:1011400001200B490866FFF7C7FA054606E0FFF7DE
:10115000C3FA401B022801D903200DE603480838D2
:101160000068C0F340600028F1D049E00838024030
:1011700000004742800E4742007000400020214995
:101180000866FFF7A9FA054606E0FFF7A5FA401B37
:10119000022801D90320EFE51B480068C0F3406036
:1011A0000028F2D12CE0A069012800D1E4E516481E
:1011B000001D0668A069012820D006F48001E069BE
:1011C00081421BD106F03F01206A814216D147F6C9
:1011D000C0703040616AB0EB811F0FD106F440311E
:1011E0000122A06AC2EB5000B1EB004F06D106F01D
:1011F00070612C20005DB1EB006F01D00120BBE5D8
:101200000020B9E5000047420038024010B504460E
:101210000CB9012010BD606A38B96068B0F5827FF2
:1012200000D105E00021E16102E00021216161615E
:101230000021A16294F8510028B9002084F85000E0
:10124000204600F047F8022084F85100206800682A
:1012500020F0400021680860A08800F48270218995
:1012600001F404410843A18901F400610843217C91
:1012700001F002010843217D01F001010843218BA7
:1012800001F400710843217F01F038010843202157
:10129000095D01F080010843218D01F400510843EC
:1012A000216808600421A06901EA104094F8241024
:1012B00001F010010843216848602068C06920F4EB
:1012C00000602168C86100206065012084F8510039
:1012D00000209FE710B586B00446142101A8FEF750
:1012E000A7FF1B49206888422FD100BF0020009033
:1012F0001848006840F480501649086008460068A5
:1013000000F48050009000BF00BF00BF002000909C
:1013100010481438006840F001000E491439086084
:101320000846006800F00100009000BF00BFE02008
:1013300001900220029000200390032004900520D9
:10134000059001A90448FFF7C7F806B010BD0000DA
:1013500000300140443802400000024070B50446AD
:101360002546681EB0F1807F01D301200FE0681E82
:101370004FF0E02148610F214FF0FF3001F0F0FA0B
:1013800000204FF0E021886107200861002070BD37
:101390007047704710B50346002200BF93F83C0029
:1013A000012801D1022010BD012083F83C0000BFBC
:1013B00022F0FF00CC6840EA040222F440708C68FE
:1013C00040EA040222F480604C6840EA040222F4FD
:1013D00000600C6840EA040222F480500C6940EA84
:1013E000040222F400504C6940EA040222F48040D6
:1013F000CC6940EA04021868426400BF002083F808
:101400003C0000BF00BFCEE730B502460B4600BF30
:1014100092F83C00012801D1022030BD012082F861
:101420003C0000BF022082F83D001068446810684C
:10143000816824F070041868044310684460184DF3
:101440001068A8421BD01068B0F1804F17D0154D1E
:101450001068A84213D0144D1068A8420FD0134D45
:101460001068A8420BD0124D1068A84207D0114D49
:101470001068A84203D0104D1068A84205D121F091
:1014800080015868014310688160012082F83D00A6
:1014900000BF002082F83C0000BF00BFBDE7000095
:1014A000000001400004004000080040000C004023
:1014B00000040140004001400018004010B50446FF
:1014C0000CB9012010BD94F83D0028B9002084F823
:1014D0003C00204600F026F8022084F83D00211D43
:1014E000206800F095FF012084F8460000BF84F8D2
:1014F0003E0001213F20015540200155412001556A
:1015000000BF00BF012084F8420043200155442061
:1015100001554520015500BF012084F83D00002001
:10152000D0E7000038B504462068B0F1804F17D1ED
:1015300000BF002000900B48006840F001000949FE
:1015400008600846006800F00100009000BF00BF7E
:10155000002202211C20FFF779FA1C20FFF762FA13
:1015600038BD0000403802402DE9F04104460D46E8
:10157000002700BF94F83C00012802D10220BDE8FA
:10158000F081012084F83C0000BF022084F83D0077
:101590002068866826F0770626F47F4620688660F5
:1015A0002868502833D00CDC202850D004DC0028D8
:1015B0004BD0102851D149E0302849D040284CD197
:1015C00039E060282DD0702807D0B0F5805F03D0B7
:1015D000B0F5005F41D10DE041E0D5E902136A6842
:1015E000206800F085FF2068866846F0770620684E
:1015F000866034E0D5E902136A68206800F078FF5D
:101600002068806840F480402168886027E0EA68AC
:101610006968206801F05CF85021206800F073FFD1
:101620001DE0EA686968206801F065F860212068BB
:1016300000F069FF13E0EA686968206801F048F883
:101640004021206800F05FFF09E000BF00BF00BF3D
:101650002968206800F057FF01E0012700BF00BFA4
:10166000012084F83D0000BF002084F83C0000BF4A
:10167000384684E7704770B504462068C56820681E
:10168000066906F00200022819D105F002000228BE
:1016900015D1401F216808610120207720688069EA
:1016A00000F0030018B12046FFF7E4FF05E02046F4
:1016B00000F04CF9204600F07DFA0020207706F07B
:1016C0000400042819D105F00400042815D1C043F2
:1016D00021680861022020772068806900F440704A
:1016E00018B12046FFF7C6FF05E0204600F02EF9AE
:1016F000204600F05FFA0020207706F00800082856
:1017000019D105F00800082815D1C04321680861E7
:10171000042020772068C06900F0030018B120463B
:10172000FFF7A8FF05E0204600F010F9204600F082
:1017300041FA0020207706F01000102819D105F09A
:101740001000102815D1C0432168086108202077B7
:101750002068C06900F4407018B12046FFF78AFF86
:1017600005E0204600F0F2F8204600F023FA0020C1
:10177000207706F0010048B105F0010030B16FF0AC
:10178000010021680861204600F015FA06F080008B
:10179000802809D105F08000802805D1C043216848
:1017A00008612046FFF7F4FD06F04000402809D10B
:1017B00005F04000402805D1C0432168086120465B
:1017C00000F0FAF906F02000202809D105F02000E9
:1017D000202805D1C043216808612046FFF7D9FDC4
:1017E00070BD000010B586B00446142101A8FEF7B4
:1017F0001FFD3349206888421DD100BF00200090A2
:101800003048006840F010002E4908600846006823
:1018100000F01000009000BF00BF481501900220AA
:1018200002900020039004900120059001A9264811
:10183000FEF752FE42E02549206888421DD100BFD4
:10184000002000901F48006840F008001D49086013
:101850000846006800F00800009000BF00BF881430
:101860000190022002900020039004900220059035
:1018700001A91748FEF730FE20E01649206888428B
:101880001CD100BF002000900E48006840F001000D
:101890000C4908600846006800F00100009000BF95
:1018A00000BF0120019002200290002003900490CC
:1018B0000220059001A90848FEF70EFE06B010BDF3
:1018C0000000014030380240001002400008004093
:1018D000000C0240000C0040000002402DE9F041E5
:1018E00004460E461546002700BF94F83C00012828
:1018F00002D10220BDE8F081012084F83C0000BF45
:1019000035B1042D09D0082D0CD00C2D14D10EE0CA
:101910003146206800F000FE10E03146206800F0FB
:1019200033FE0BE03146206800F06CFE06E03146E5
:10193000206800F0A3FE01E0012700BF00BF00BF48
:10194000002084F83C0000BF3846D3E7704710B54C
:1019500004460CB9012010BD94F83D0028B90020C0
:1019600084F83C00204600F025F8022084F83D0071
:10197000211D206800F04CFD012084F8460000BFC6
:1019800084F83E0001213F200155402001554120AF
:10199000015500BF00BF012084F8420043200155DB
:1019A000442001554520015500BF012084F83D0029
:1019B0000020D0E708B5204A016891420FD100BF4E
:1019C000002100911D49096841F001011B4A116085
:1019D0001146096801F00101009100BF2BE0184A8F
:1019E0000168914211D100BF002100911349091FE4
:1019F000096841F00401114A121F1160114609687B
:101A000001F00401009100BF15E00E4A0168914207
:101A100011D100BF002100910849091F096841F058
:101A20000801064A121F11601146096801F00801F9
:101A3000009100BF00BF08BD0000014044380240D3
:101A400000080040000C00402DE9F04104460D461E
:101A50001646002700BF94F83C00012802D102205E
:101A6000BDE8F081012084F83C0000BF36B1042EAF
:101A70001BD0082E31D00C2E5ED145E029462068BF
:101A800000F04AFD2068806940F008002168886104
:101A90002068806920F004002168886120688069DE
:101AA000296908432168886148E02946206800F0D8
:101AB0006BFD2068806940F40060216888612068BF
:101AC000806920F4806021688861206880692969C4
:101AD00040EA01202168886130E02946206800F052
:101AE00091FD2068C06940F008002168C861206845
:101AF000C06920F004002168C8612068C0692969B4
:101B000008432168C86119E02946206800F0B6FD45
:101B10002068C06940F400602168C8612068C0691D
:101B200020F480602168C8612068C069296940EAA2
:101B300001202168C86101E0012700BF00BF00BF8C
:101B4000002084F83C0000BF384689E710B5044601
:101B50000CB9012010BD94F83D0028B9002084F88C
:101B60003C00204600F025F8022084F83D00211DAD
:101B7000206800F04DFC012084F8460000BF84F886
:101B80003E0001213F2001554020015541200155D3
:101B900000BF00BF012084F84200432001554420CB
:101BA00001554520015500BF012084F83D0000206B
:101BB000D0E7704770477047704710B504460CB9BE
:101BC000012010BDA06900B100E000BF94F8410001
:101BD00028B9002084F84000204600F029F824208D
:101BE00084F841002068C06820F400502168C86073
:101BF000204600F095FD2068006920F4904021689F
:101C000008612068406920F02A0021684861206846
:101C1000C06840F400502168C86000206064202043
:101C200084F8410084F842000020606300BFC8E7E8
:101C300010B586B00446142101A8FEF7F9FA7B49D5
:101C4000206888424DD100BF00200090784800688D
:101C500040F40020764908600846006800F400203F
:101C6000009000BF00BF00BF0020009070481038F7
:101C7000006840F001006E491039086008460068AD
:101C800000F00100009000BF00BF00BF00200090E6
:101C90000846006840F0040008600846006800F04C
:101CA0000400009000BF00BF0220019002900020BD
:101CB0000390032004900820059001A95D48FEF7D9
:101CC0000BFC4FF4806001900220029000200390F2
:101CD000032004900820059001A95748FEF7FCFB5B
:101CE000A1E056492068884233D100BF002000900F
:101CF0004F48001D006840F010004D49091D086064
:101D00000846006800F01000009000BF00BF00BF50
:101D10000020009046481038006840F00100444917
:101D2000103908600846006800F00100009000BF0C
:101D300000BF4FF4C0600190022002900020039089
:101D4000032004900720059001A93A48FEF7C4FB40
:101D500069E03B492068884230D100BF00200090F4
:101D60003348006840F40030314908600846006894
:101D700000F40030009000BF00BF00BF00200090C2
:101D80002B481038006840F00100294910390860DC
:101D90000846006800F00100009000BF00BF0C2062
:101DA000019002200290002003900320049007205D
:101DB000059001A91F48FEF78FFB34E021492068F8
:101DC000884230D100BF002000901948006840F4DC
:101DD0008020174908600846006800F480200090C1
:101DE00000BF00BF00BF00200090114810380068FD
:101DF00040F002000E49103908600846006800F003
:101E00000200009000BF00BF4FF44060019002202C
:101E1000029000200390032004900720059001A960
:101E20000948FEF759FB06B010BD0000004C004009
:101E3000403802400000024000080240001001400B
:101E4000004400400048004000040240FEE700005B
:101E500010B50B480B490860102048600021094864
:101E60008160C16001614161017641768176C17610
:101E700001774177FEF71DFA08B1FEF717FA10BD9A
:101E8000006400401000002000B587B0142102A8B3
:101E9000FEF7CEF900BF002001903D48006840F0F9
:101EA00080003B4908600846006800F0800001900F
:101EB00000BF00BF00BF002001900846006840F04E
:101EC000010008600846006800F00100019000BFB2
:101ED00000BF00BF002001900846006840F01000DD
:101EE00008600846006800F01000019000BF00BFC5
:101EF00000BF002001900846006840F00200086022
:101F00000846006800F00200019000BF00BF00BF5B
:101F1000002001900846006840F00800086008466C
:101F2000006800F00800019000BF00BF00BF002063
:101F300001900846006840F0040008600846006808
:101F400000F00400019000BF00BF00220F211148E3
:101F5000FEF7BCFB0022F8210F48FEF7B7FB0F206D
:101F600002900120039004900220059002A90948E4
:101F7000FEF7B2FAF82002900120039004900220AC
:101F8000059002A90448FEF7A7FA07B000BD0000BB
:101F900030380240000C02400004024010B50B48EB
:101FA0000B4908600B484860002109488160C16006
:101FB0004FF480410161002141618161C161016291
:101FC000FEF790FB08B1FEF771F910BD0054004018
:101FD00038000020A086010010B50E480E490860A8
:101FE0004FF48270486000210B488160C16001613C
:101FF00041614FF4007181610021C1610162416260
:1020000081620A21C162FFF701F908B1FEF74EF9BA
:1020100010BD0000003001408C00002000B591B0E0
:1020200000200F9010901C2108A8FEF701F9202134
:102030006846FEF7FDF82248224908609F20486064
:102040000021204881604FF6FF71C16000210161CD
:1020500041618161FFF77BFC08B1FEF727F90020A1
:102060000F9010900FA91748FFF7CEF908B1FEF7AF
:102070001DF90020089009900A900B900C900D908B
:102080000E90002208A90F48FFF728FC08B1FEF7C0
:102090000DF90020009001900290039004904FF4FD
:1020A000005005900020079069460648FFF772F936
:1020B00008B1FEF7FBF80348FFF794FB11B000BD31
:1020C00000000140E400002000B58DB00020099020
:1020D0000A900B900C90079008901C216846FEF720
:1020E000A7F84FF080401D4908604F20486000214C
:1020F0001A4881600421C160002101618161FFF7FC
:10210000DDF908B1FEF7D2F84FF48050099009A923
:102110001248FFF729FA08B1FEF7C8F80F48FFF791
:1021200015FD08B1FEF7C2F800200790089007A936
:102130000A48FFF769F908B1FEF7B8F86020009087
:102140000020019002900490002269460348FFF7A6
:102150007BFC08B1FEF7AAF80DB000BD2C010020F1
:1021600000B589B00020079008901C216846FEF752
:102170005FF817481749086000204860002115489B
:1021800081604FF6FF71C160002101618161FFF73D
:10219000DEFB08B1FEF78AF800200790089007A937
:1021A0000C48FFF731F908B1FEF780F800200090E5
:1021B000019002900490002269460648FFF78EFBCA
:1021C00008B1FEF773F80348FFF70CFB09B000BD38
:1021D000000800407401002000B589B0002007907D
:1021E00008901C216846FEF723F817481749086035
:1021F00000204860002115488160491EC16000210F
:1022000001618161FFF7A3FB08B1FEF74FF80020E1
:102210000790089007A90D48FFF7F6F808B1FEF7F8
:1022200045F8002000900190029004900022694639
:102230000648FFF753FB08B1FEF738F80348FFF7ED
:10224000D1FA09B000BD0000000C0040BC01002024
:1022500010B50B480B4908604FF4E130486000218D
:1022600008488160C16001610C21416100218161E8
:10227000C161FFF7A2FC08B1FEF718F810BD00001D
:10228000004C00400402002010B50B480B490860C8
:102290004FF4E1304860002108488160C16001616D
:1022A0000C21416100218161C161FFF786FC08B109
:1022B000FDF7FCFF10BD0000001001404C020020A3
:1022C00010B50B480B4908604FF4E130486000211D
:1022D00008488160C16001610C2141610021816178
:1022E000C161FFF76AFC08B1FDF7E0FF10BD000017
:1022F000004400409402002010B50B480B490860D0
:102300004FF4E1304860002108488160C1600161FC
:102310000C21416100218161C161FFF74EFC08B1D0
:10232000FDF7C4FF10BD000000480040DC020020A3
:10233000FEE7FEE770477047FEF700BB00B593B0BD
:10234000302107A8FDF774FF142102A8FDF770FFE4
:1023500000BF002001902448006840F080502249CE
:1023600008600846006800F08050019000BF00BF80
:1023700000BF002001901D48006840F480401B49C8
:1023800008600846006800F48040019000BF00BF6C
:10239000012007900004089002200D9041050E9145
:1023A00004210F91A0211091022111910421129179
:1023B00007A8FEF7DDFC08B1FDF778FF0F200290BB
:1023C00002200390002004904FF4A05005904FF499
:1023D00080500690052102A8FEF78AFB08B1FDF7A0
:1023E00065FF13B000BD000040380240007000409F
:1023F0000348006840F4700001490860704700001D
:1024000088ED00E00148FFF736B900002C010020FC
:1024100010B502682B4B98420ED0B0F1804F0BD014
:10242000294B984208D0294B984205D0284B984216
:1024300002D0284B984203D122F070024B681A4315
:10244000204B984220D0B0F1804F1DD01E4B9842B7
:102450001AD01E4B984217D01D4B984214D01D4BDA
:10246000984211D01C4B98420ED01C4B98420BD076
:102470001B4B984208D01B4B984205D01A4B9842F0
:1024800002D01A4B984203D122F44072CB681A430F
:1024900022F080034C6943EA04028B68C3620B6834
:1024A0008362084B984202D00A4B984201D10B69D3
:1024B0000363036843F00403036001234361026084
:1024C00010BD000000000140000400400008004072
:1024D000000C004000040140004001400044014065
:1024E0000048014000180040001C0040002000404F
:1024F00030B50C46816821F47F4142EA032525432B
:102500002943816030BD0A46816821F0700142F0A4
:10251000070319438160704730B5026A056A25F0E8
:10252000010505624368846924F0700424F0030403
:102530000D682C4322F002028D682A43104DA842F8
:1025400000D103E00F4DA84206D100BF22F00802DF
:10255000CD682A4322F00402094DA84202D0094D59
:10256000A84207D123F4807323F400734D692B43F1
:102570008D692B43436084614D684563026230BDC1
:10258000000001400004014030B5026A056A25F0F0
:10259000100505624368846924F4E04424F440741F
:1025A0000D6844EA052422F020028D6842EA0512F3
:1025B000124DA84200D103E0114DA84207D100BF3F
:1025C00022F08002CD6842EA051222F040020B4D53
:1025D000A84202D00A4DA84209D123F4806323F413
:1025E00000634D6943EA85038D6943EA85034360CF
:1025F00084614D688563026230BD000000000140C7
:102600000004014030B5026A056A25F48075056250
:102610004368C46924F0700424F003040D682C435B
:1026200022F400728D6842EA0522124DA84200D1C0
:1026300003E0114DA84207D100BF22F40062CD682B
:1026400042EA052222F480620A4DA84202D00A4DD5
:10265000A84209D123F4805323F400534D6943EA7F
:1026600005138D6943EA05134360C4614D68C56372
:10267000026230BD000001400004014030B5036A31
:10268000056A25F4805505624468C26922F4E04277
:1026900022F440720D6842EA052223F400538D684B
:1026A00043EA0533084DA84202D0084DA84204D1A0
:1026B00024F480444D6944EA85144460C2614D6845
:1026C0000564036230BD00000000014000040140C9
:1026D00030B50B461446026A056A25F0010505620D
:1026E000816921F0F00141EA041122F00A021A4343
:1026F0008161026230BD30B50B461446026A056A3C
:1027000025F010050562816921F4704141EA043128
:1027100022F0A00242EA03128161026230BD000091
:102720002DE9F84F04462068006920F44050E16824
:102730000843216808612169A0680843616908436A
:10274000E169084300902068C06849F20C61884341
:10275000009908432168C8602068406920F44070EF
:10276000A16908432168486176492068884203D0FE
:1027700075492068884203D1FEF792FA814602E04B
:10278000FEF77EFA8146E069B0F5004F6CD1022079
:102790006168A0FB015003461920A9FB00700146A7
:1027A0002A463846FDF70CFD6421B0FBF1F04FEAF4
:1027B000001A02206168A0FB01510B461920A9FBF9
:1027C00000712A463846FDF7FBFC8346022061680B
:1027D000A0FB015003461920A9FB00712A46384688
:1027E000FDF7EEFC6421B0FBF1F000EBC00101EB62
:1027F0000010ABEB8000322101EBC0006421B0FB84
:10280000F1F000F0F8000AEB400A02206168A0FB3A
:10281000015003461920A9FB007001462A4638469C
:10282000FDF7CEFC834602206168A0FB0150034601
:102830001920A9FB00712A463846FDF7C1FC642126
:10284000B0FBF1F000EBC00101EB0010ABEB80003E
:10285000322101EBC0006421B0FBF1F000F0070071
:102860005044216888606AE004206168A0FB015040
:1028700003461920A9FB007001462A463846FDF799
:102880009FFC824604206168A0FB0150034619208A
:10289000A9FB007001462A463846FDF791FC6421E9
:1028A000B0FBF1F000EBC00101EB0010AAEB8000DF
:1028B000322101EB00106421B0FBF1F000F0F00ACE
:1028C00004206168A0FB017003461920A9FB005198
:1028D0003A462846FDF774FC6421B0FBF1F00AEBA0
:1028E000001A04206168A0FB01510B461920A9FBC6
:1028F00000712A463846FDF763FC83460420616870
:10290000A0FB015003461920A9FB007001462A468E
:102910003846FDF755FC6421B0FBF1F000EBC00137
:1029200001EB0010ABEB8000322101EB00106421C1
:10293000B0FBF1F000F00F00504421688860BDE862
:10294000F88F00000010014000140140FEE7000075
:1029500002480068C0F30220704700000CED00E060
:1029600010B5002804DB0A07130E054A135406E0CD
:102970000A07140E034A00F00F031B1FD45410BDA6
:1029800000E400E018ED00E002E008C8121F08C1F2
:10299000002AFAD170477047002001E001C1121FE0
:1029A000002AFBD17047000010B5002012E00C494E
:1029B00001EBC00189880904094A52F8302091616D
:1029C000074901EBC001C9880904054A52F83020C3
:1029D0009161401C0428EADB642000F003F810BD7C
:1029E000A42A000810B5114B1B6803F080736BB963
:1029F0000E4B1B6843F080730C4C236000230C4C7F
:102A0000636023461B6843F001032360084B596849
:102A1000084B1B68084CB3FBF4F303FB00F200BF48
:102A2000034B5B685B1A9342FAD310BDFCED00E0E8
:102A3000001000E00C00002040420F00FDF78AFF6C
:102A4000FFF77CFCFFF720FAFFF71EFCFFF754FCB2
:102A5000FFF7FEF9FFF7A2FAFFF7BEFAFFF7DEFA7B
:102A6000FFF732FBFFF77CFBFFF7B6FBFFF7F0FB4E
:102A7000FFF726FCFFF798FF11E040F2DC50084911
:102A8000096848634FF4FA70FDF712FD40F29B208D
:102A90000349096848634FF4FA70FDF709FDECE754
:102AA000E400002000040240100020000004024066
:102AB00040008000000C024001000200000C0240B7
:102AC00004000800000000000000000001020304F0
:102AD000060708090000000001020304FC2A0008A0
:102AE0000000002010000000882900080C2B0008BE
:102AF00010000020180700009829000800000000BE
:0C2B000010000000010000000024F400A0
:040000050800018965
:00000001FF
